S01A0000537072696E74203130202D204D65737472652E737265632C
S11300000C9424010C9468010C948D010C9441010E
S11300100C9441010C94B0030C9441010C944101E3
S11300200C9441010C9441010C9441010C94410144
S11300300C9441010C9441010C94BA080C944101B4
S11300400C9441010C9441010C9443010C94410122
S11300500C9441010C9441010C9441010C94410114
S11300600C9441010C944101000000000000005F69
S113007000000007000700147F147F14242A7F2A3D
S11300801223130864623649552250000503000008
S1130090001C2241000041221C0014083E081408E0
S11300A0083E0808005030000008080808080060EE
S11300B060000020100804023E5149453E00427F82
S11300C0400042615149462141454B311814127F89
S11300D01027454545393C4A494930017109050312
S11300E03649494936064949291E0036360000007A
S11300F0563600000814224100141414141400414C
S11301002214080201510906324979413E7E111137
S1130110117E7F494949363E414141227F41412276
S11301201C7F494949417F090909013E4149497AEE
S11301307F0808087F00417F41002040413F017F44
S1130140081422417F404040407F020C027F7F041C
S113015008107F3E4141413E7F090909063E415155
S1130160215E7F09192946464949493101017F0128
S1130170013F4040403F1F2040201F3F4038403F48
S11301806314081463070870080761514945430064
S11301907F41410002040810200041417F00040215
S11301A00102044040404040000102040020545435
S11301B054787F48444438384444442038444448BC
S11301C07F3854545418087E0901020C5252523E8E
S11301D07F0804047800447D40002040443D007FB3
S11301E01028440000417F40007C041804787C08F7
S11301F004047838444444387C141414080814144F
S1130200187C7C080404084854545420043F444097
S1130210203C4040207C1C2040201C3C4030403C82
S113022044281028440C5050503C4464544C44001E
S11302300836410000007F00000041360800100825
S1130240081008000000000011241FBECFEFD8E002
S1130250DEBFCDBF11E0A0E0B1E0E8E9FCE102C0FF
S113026005900D92AC34B107D9F723E0ACE4B1E0CA
S113027001C01D92AC37B207E1F70E94DF020C9473
S11302804A0E0C9400001F920F920FB60F92112485
S11302908F938091C600893539F08A3549F08835C5
S11302A051F41092670307C081E08093670303C091
S11302B082E0809367038F910F900FBE0F901F9081
S11302C018959091C00095FFFCCF8093C6000895C7
S11302D01F920F920FB60F9211248F939F93AF9397
S11302E0BF938091560190915701A0915801B0910C
S11302F059010196A11DB11D809356019093570198
S1130300A0935801B0935901BF91AF919F918F91E0
S11303100F900FBE0F901F9018951F920F920FB65B
S11303200F9211240F900FBE0F901F9018950E94EA
S1130330B00960E084E10E94890A61E08AE191E009
S11303400E94780A64E181E40E94890A61E080E203
S113035091E00E94780A6AE080E00E94890A61E0E4
S113036084E291E00E94780A64E180E00E94890AB4
S113037061E08CE291E00E94780A6EE180E00E94E4
S1130380890A61E083E391E00E94780A68E280E0F0
S11303900E94890A61E08DE391E00E94780A68E294
S11303A08CE30E94890A8091C60061E090E00E947B
S11303B0780A089520916801211104C010926A01FD
S11303C010926901213031F481E090E090936A0148
S11303D08093690180916B0190916C01813091054A
S11303E0C9F11CF4009749F098C08230910509F4D2
S11303F05EC0039709F488C090C0211121C0880F02
S1130400991F880F991FFC01E65FFE4F83818F932C
S113041082818F9381818F9380818F9386E491E091
S11304209F938F9388E091E09F938F930E94600B3A
S11304308DB79EB708960FB6F8949EBF0FBE8DBFBA
S11304406AE086E20E94890A61E089E491E00E9400
S1130450780A63C0211121C0880F991F880F991F42
S1130460FC01E65FFE4F83818F9382818F938181AC
S11304708F9380818F9386E491E09F938F9386E09E
S113048091E09F938F930E94600B8DB79EB708965F
S11304900FB6F8949EBF0FBE8DBF64E186E20E9442
S11304A0890A61E089E491E00E94780A36C021114A
S11304B021C0880F991F880F991FFC01E65FFE4F2A
S11304C083818F9382818F9381818F9380818F9396
S11304D086E491E09F938F9384E091E09F938F93C0
S11304E00E94600B8DB79EB708960FB6F8949EBF16
S11304F00FBE8DBF6EE186E20E94890A61E089E445
S113050091E00E94780A09C068E286E20E94890AA2
S113051061E089E491E00E94780A6AE08EE10E9439
S1130520890A61E088E091E00E94780A64E18EE142
S11305300E94890A61E086E091E00E94780A6EE1F7
S11305408EE10E94890A61E084E091E00E94780AC9
S113055068E28EE10E94890A8091690190916A01A2
S1130560880F991F61E080509F4F0E94780A809104
S113057061018F93809160018F9380915F018F93CC
S113058080915E018F9386E491E09F938F9388E737
S113059093E09F938F930E94600B60E080E00E9441
S11305A0890A61E088E793E00E94780A8DB79EB7D4
S11305B008960FB6F8949EBF0FBE8DBF089584B100
S11305C0CFEFC4B98AB180688AB98AB18B788AB905
S11305D08BB184678BB987B18E7F87B987B18F7BE5
S11305E087B98AB188608AB90E9458090E94970124
S11305F00E94DA010E948E0A8AE08093690083E0F7
S11306008DBB84E0809368008BBB80E780936D0092
S113061082E084BD85BD97EC97BD80936E0083E234
S11306208093B00085E08093B10080E480937C00E7
S113063087EE80937A0010927B0010927E001092D5
S1130640C500C093C40088E98093C1008EE0809304
S1130650C2007894FFCF8F929F92AF92BF92CF92B5
S1130660DF92EF92FF920F931F93CF93DF936091EA
S11306705E0170915F0180916001909161012CE3B2
S113068030E040E050E00E94B30ADA01C90101966B
S1130690A11DB11DCAE0D1E088839983AA83BB83DD
S11306A0C12CD12C7601C394CC82DD82EE82FF82F0
S11306B00F2EF9E0CF2ED12CE12CF12CF02D460198
S11306C05701821A930AA40AB50A88869986AA86CB
S11306D0BB86BF93AF939F938F9306E411E01F9360
S11306E00F9388E091E09F938F930E94600B8F811A
S11306F08F938E818F938D818F938C818F931F9392
S11307000F9386E091E09F938F930E94600B8B85FB
S11307108F938A858F9389858F9388858F931F9371
S11307200F9384E091E09F938F930E94600B0E944B
S1130730DA010E948E0A8DB79EB748960FB6F894D8
S11307409EBF0FBE8DBFDF91CF911F910F91FF9080
S1130750EF90DF90CF90BF90AF909F908F900895CF
S11307601F920F920FB60F9211242F933F934F9322
S11307705F936F937F938F939F93AF93BF93EF9305
S1130780FF934C9945C00E94970180916B01909111
S11307906C018330910549F4209168012F5F209307
S11307A06801223014F0109268012091680121112F
S11307B027C0FC01EE0FFF1FEE0FFF1FE65FFE4F89
S11307C040815181628173814F5F5F4F6F4F7F4FD3
S11307D040835183628373834A30510561057105F7
S11307E078F0880F991F880F991FFC01E65FFE4F70
S11307F089E090E0A0E0B0E080839183A283B3839A
S1130800213011F40E942B030E94DA010E948E0A07
S11308104D9945C00E94970180916B0190916C01A4
S11308208330910551F4209168012150209368018F
S113083022231CF421E020936801209168012111F6
S113084026C0FC01EE0FFF1FEE0FFF1FE65FFE4FF9
S1130850408151816281738141505109610971095B
S11308604083518362837383452B462B472B79F452
S1130870880F991F880F991FFC01E65FFE4F81E0E6
S113088090E0A0E0B0E080839183A283B383213021
S113089011F40E942B030E94DA010E948E0A4E99E1
S11308A015C00E94970180916B0190916C01019693
S11308B090936C0180936B01049724F010926C0167
S11308C010926B010E94DA010E948E0AFF91EF914F
S11308D0BF91AF919F918F917F916F915F914F9154
S11308E03F912F910F900FBE0F901F9018958091FC
S11308F05A0190915B01A0915C01B0915D01009758
S1130900A105B10541F410925E0110925F011092AD
S113091060011092610181309105A105B10561F476
S11309204CE350E060E070E040935E0150935F015F
S1130930609360017093610183309105A105B10555
S113094061F448E750E060E070E040935E0150934A
S11309505F016093600170936101AC01BD0144507B
S1130960510961097109423051056105710560F44D
S113097044EB50E060E070E040935E0150935F010F
S1130980609360017093610186309105A105B10502
S113099061F440EF50E060E070E040935E015093FA
S11309A05F016093600170936101AC01BD01475028
S11309B0510961097109423051056105710560F4FD
S11309C04CE251E060E070E040935E0150935F01BF
S11309D0609360017093610189309105A105B105AF
S11309E061F448E651E060E070E040935E015093AA
S11309F05F016093600170936101AC01BD014A50D5
S1130A00510961097109423051056105710560F4AC
S1130A1044EA51E060E070E040935E0150935F016E
S1130A2060936001709361010D97A105B10561F4B4
S1130A3080EE91E0A0E0B0E080935E0190935F01CE
S1130A40A0936001B09361010895CF93DF93FC01FB
S1130A5020812223A9F1EC012091780030917900C2
S1130A6040E050E068E17CE98FE090E00E94D50A24
S1130A70DA01C901885E9340A109B109BF93AF931C
S1130A809F938F9386E491E09F938F9388E693E0FE
S1130A909F938F930E94600B6AE081E40E94890A0D
S1130AA061E088E693E00E94780A0E948E0A188228
S1130AB08DB79EB708960FB6F8949EBF0FBE8DBF34
S1130AC0DF91CF910895CF93DF93EC018881882340
S1130AD081F1209178003091790040E050E068E1A4
S1130AE07CE98FE090E00E94D50ADA01C901885EB2
S1130AF09340A109B1098C329140A105B105B4F428
S1130B00369B0CC080915E0190915F01A0916001C1
S1130B10B0916101892B8A2B8B2B21F089EF809373
S1130B20B40006C08BE48093B40002C01092B400F9
S1130B301882DF91CF9108954F925F926F927F92C6
S1130B408F929F92AF92BF92CF92DF92EF92FF92D9
S1130B500F93CF93DF9340906201509063016090B4
S1130B606401709065018091500190915101A091B0
S1130B705201B0915301A3019201281B390B4A0B76
S1130B805B0BDA01C9018035934CA105B10508F46A
S1130B9043C0609156017091570180915801909122
S1130BA059012DEC3CEC4CEC5CEC0E94FF0A00E299
S1130BB00E942C0B822E932EA42EB52EB694A794AD
S1130BC097948794B694A7949794879480925A01A3
S1130BD090925B01A0925C01B0925D01109256016B
S1130BE010925701109258011092590140925001ED
S1130BF05092510160925201709253010E94770405
S1130C0080916801813011F40E942B030E949701A6
S1130C100E94DA010E948E0A85E591E00E94250572
S1130C2084E591E00E94630580916703823009F0B6
S1130C3085C28091660190916701892B71F5CEE69A
S1130C40D3E087E6888389E78A8382E78C8380916F
S1130C5008018983809106018B83809104018D832F
S1130C6087E60E94610189810E9461018A810E9454
S1130C7061018B810E9461018C810E9461018D81DF
S1130C800E9461018FE085B98091660190916701AE
S1130C9001969093670180936601C0906201D090A1
S1130CA06301E0906401F090650180914C019091A2
S1130CB04D01A0914E01B0914F01C81AD90AEA0A18
S1130CC0FB0A20910A0130910B0140910C015091D3
S1130CD00D01A4ECB9E00E94F40AC616D706E80692
S1130CE0F90688F08091660190916701019759F4A3
S1130CF087E085B980916601909167010196909390
S1130D00670180936601C0906201D0906301E09016
S1130D106401F090650180914C0190914D01A09186
S1130D204E01B0914F01C81AD90AEA0AFB0A209170
S1130D300A0130910B0140910C0150910D01A8E87A
S1130D40B3E10E94F40AC616D706E806F90688F04D
S1130D508091660190916701029759F483E085B907
S1130D608091660190916701019690936701809349
S1130D706601C0906201D0906301E0906401F0903C
S1130D80650180914C0190914D01A0914E01B0916B
S1130D904F01C81AD90AEA0AFB0A20910A013091C4
S1130DA00B0140910C0150910D01ACE4BDE10E9496
S1130DB0F40AC616D706E806F90688F0809166019B
S1130DC090916701039759F481E085B98091660198
S1130DD09091670101969093670180936601C0909A
S1130DE06201D0906301E0906401F090650180910C
S1130DF04C0190914D01A0914E01B0914F01C81A40
S1130E00D90AEA0AFB0A20910A0130910B014091A8
S1130E100C0150910D01A0E1B7E20E94F40AC6163C
S1130E20D706E806F90698F080916601909167016B
S1130E30049769F415B88BB180688BB98091660109
S1130E409091670101969093670180936601C09029
S1130E506201D0906301E0906401F090650180919B
S1130E604C0190914D01A0914E01B0914F01C81ACF
S1130E70D90AEA0AFB0AEAE0F1E040815181628181
S1130E80738184819581A681B7819A01AB01280F72
S1130E90391F4A1F5B1FA0E1B7E20E94F40AC6167D
S1130EA0D706E806F906A0F08091660190916701E3
S1130EB0059771F48BB18F778BB980EF85B98091E9
S1130EC06601909167010196909367018093660192
S1130ED0C0906201D0906301E0906401F0906501DC
S1130EE080914C0190914D01A0914E01B0914F0120
S1130EF0C81AD90AEA0AFB0AEAE0F1E04081518102
S1130F006281738184819581A681B7819A01AB0145
S1130F10280F391F4A1F5B1FA0E1B7E20E94F40AA1
S1130F204B015C012085318542855385A4ECB9E0F1
S1130F300E94F40ADC01CB01880D991DAA1DBB1D7A
S1130F40C816D906EA06FB0688F0809166019091DE
S1130F506701069759F480E785B9809166019091FD
S1130F60670101969093670180936601C0906201C6
S1130F70D0906301E0906401F090650180914C0190
S1130F8090914D01A0914E01B0914F01C81AD90A18
S1130F90EA0AFB0AEAE0F1E040815181628173814F
S1130FA084819581A681B7819A01AB01280F391FED
S1130FB04A1F5B1FA0E1B7E20E94F40A4B015C01E7
S1130FC02085318542855385A8E8B3E10E94F40A5F
S1130FD0DC01CB01880D991DAA1DBB1DC816D906BD
S1130FE0EA06FB0688F080916601909167010797F5
S1130FF059F480E385B98091660190916701019667
S11310009093670180936601C0906201D090630160
S1131010E0906401F090650180914C0190914D0144
S1131020A0914E01B0914F01C81AD90AEA0AFB0AED
S1131030EAE0F1E04081518162817381848195818C
S1131040A681B7819A01AB01280F391F4A1F5B1F84
S1131050A0E1B7E20E94F40A4B015C0120853185CE
S113106042855385ACE4BDE10E94F40ADC01CB0166
S1131070880D991DAA1DBB1DC816D906EA06FB06D4
S113108088F08091660190916701089759F480E196
S113109085B98091660190916701019690936701EB
S11310A080936601C0906201D0906301E090640176
S11310B0F090650180914C0190914D01A0914E01F9
S11310C0B0914F01C81AD90AEA0AFB0AEAE0F1E032
S11310D0408151816281738184819581A681B78128
S11310E0480F591F6A1F7B1F80859185A285B38590
S11310F09A01AB01280F391F4A1F5B1FA0E1B7E219
S11311000E94F40AC616D706E806F906B8F089E67E
S11311100E9461018091620190916301A091640138
S1131120B091650180934C0190934D01A0934E01C1
S1131130B0934F011092670110926601809167038A
S1131140813011F48FE085B980916703811102C069
S113115080EF85B9DF91CF910F91FF90EF90DF90F1
S1131160CF90BF90AF909F908F907F906F905F9043
S11311704F9008951F920F920FB60F921124CF92A1
S1131180DF92EF92FF922F933F934F935F936F936E
S11311907F938F939F93AF93BF93EF93FF9360914C
S11311A062017091630180916401909165010E94D4
S11311B09C05C0906201D0906301E0906401F090BE
S11311C065018FEFC81AD80AE80AF80AC0926201CA
S11311D0D0926301E0926401F0926501C701B60107
S11311E028E833E140E050E00E94B30A672B682B03
S11311F0692B19F481E080935501C701B60124EFEE
S113120031E040E050E00E94B30A672B682B692B61
S113121019F481E080935401FF91EF91BF91AF9154
S11312209F918F917F916F915F914F913F912F91FA
S1131230FF90EF90DF90CF900F900FBE0F901F9014
S1131240189598B19D7F98B9662329F098B1986054
S113125098B990E01FC098B1977F98B9FACF47E04A
S113126050E0491B5109282F30E002C035952795DD
S11312704A95E2F720FF04C028B1206128B903C0D1
S113128028B12F7E28B928B1206228B928B12F7D32
S113129028B99F5F983018F388B1826088B908959F
S11312A060E00E942109089561E00E9421090895E7
S11312B0CF93DF9387B1826087B987B1846087B9A0
S11312C087B1886087B987B1806187B987B1806247
S11312D087B988B1846088B988B1826088B983ECA1
S11312E099E00197F1F700C0000088B18B7F88B9BD
S11312F08BE594E40197F1F700C0000088B18460A5
S113130088B988B18D7F88B981E20E94500983E150
S11313100E94500986E00E94500982EC0E94500904
S113132080E20E94500989E00E94500980E80E94EE
S1131330500980E40E945009C0E0D0E004C080E07D
S11313400E9454092196C83F91E0D907C0F388E070
S11313500E9450098CE00E945009DF91CF910895BA
S113136080E80E94500980E40E94500910926503AD
S11313701092660380E090E005C0FC01E359FE4F43
S113138010820196883F21E09207B8F30895262F32
S113139026952695269590E034E5239F800D911D92
S11313A01124442379F0677021E030E002C0220F59
S11313B0331F6A95E2F7FC01E359FE4F8081282B25
S11313C020830895677021E030E002C0220F331FAC
S11313D06A95E2F7FC01E359FE4F209580812823AA
S11313E020830895EF92FF920F931F93CF93DF937F
S11313F0E82EF62E00E045C02E2D30E020523109B3
S1131400802F6F2D0E94A70AF901EE0FFF1FEE0F28
S1131410FF1FE20FF31FE80FF11DE859FF4FE4919E
S1131420812F0E94A70AF0E002C0F595E7958A95FE
S1131430E2F7E0FF0AC06091660380916503610FE3
S113144041E0800F0E94C70909C060916603809142
S11314506503610F40E0800F0E94C7091F5F01C050
S113146010E0212F30E0CE01880F991F880F991FBB
S1131470880F991F8C1B9D0B281739070CF4BCCFC0
S11314800F5F202F30E0CF2DD0E0CE01880F991FC1
S1131490880F991F8C0F9D1F281739070CF3E5E659
S11314A0F3E08F2D880F880F8F0D9081890F8F5F48
S11314B08083843570F010926503E6E6F3E08F2DA7
S11314C0880F880F880F982F9F198081890F8F5F4D
S11314D0808380916603803320F01092650310921C
S11314E06603DF91CF911F910F91FF90EF900895C4
S11314F01F93CF93DF93EC01162F04C02196612F25
S11315000E94F20988818111F9CFDF91CF911F9157
S1131510089580936503609366030895CF93DF93E2
S113152080E80E94500980E40E945009C0E0D0E0A5
S113153007C0FE01E359FE4F80810E9454092196A1
S1131540C83F81E0D807A8F3DF91CF910895991B94
S113155079E004C0991F961708F0961B881F7A95A6
S1131560C9F780950895A1E21A2EAA1BBB1BFD01A1
S11315700DC0AA1FBB1FEE1FFF1FA217B307E4076E
S1131580F50720F0A21BB30BE40BF50B661F771FC6
S1131590881F991F1A9469F76095709580959095A6
S11315A09B01AC01BD01CF010895052E97FB1EF4EC
S11315B000940E94EC0A57FD07D00E94B30A07FC6E
S11315C003D04EF40C94EC0A509540953095219537
S11315D03F4F4F4F5F4F089590958095709561955B
S11315E07F4F8F4F9F4F08950E94480BA59F900DEA
S11315F0B49F900DA49F800D911D11240895E8942B
S1131600DF93CF93FC01DB010E94480B7F936F9320
S1131610E9019A01AC01BF93AF933F932F93DF018C
S11316200E94480B26F46C1B7D0B820B930B9E01CE
S1131630EB01FC010E94570BAF91BF912F913F9199
S11316400E94570BBE01CF01F9012F913F91CF9119
S1131650DF91089597FB10F8169400080F93083053
S113166098F00850232F342F452F562F672F782FAB
S1131670892F902DF4CF0594979587957795679545
S113168057954795379527950A95AAF70F91089589
S1131690A29FB001B39FC001A39F700D811D1124AF
S11316A0911DB29F700D811D1124911D08950E94FA
S11316B0480B460F571FC81FD91F08F431960895C9
S11316C0AEE0B0E0E6E6FBE00C94210E0D891E8945
S11316D086E08C831A8309838FEF9FE79E838D8333
S11316E0AE01475E5F4F6F89788DCE0101960E94EF
S11316F0820BEF81F885E00FF11F10822E96E4E053
S11317000C943D0EABE0B0E0E8E8FBE00C94130E63
S11317106C017B018A01FC0117821682838181FF9F
S1131720CCC1CE0101963C01F6019381F70193FDF2
S1131730859193FF81917F01882309F4BAC1853291
S113174039F493FD859193FF81917F01853229F4CA
S1131750B60190E00E94790DE7CF912C212C312C19
S1131760FFE1F315D8F08B3279F038F4803279F058
S11317708332A1F4232D20611DC08D3261F08033AA
S113178069F4232D216016C0832D8260382EE32D49
S1131790E4603E2E2AC0F32DF8601DC037FC2DC036
S11317A020ED280F2A3040F08E32B9F436FC81C186
S11317B0232D2064322E19C036FE06C08AE0989E7E
S11317C0200D1124922E11C0EAE02E9E200D11242A
S11317D0222EF32DF0623F2E08C08C3621F4832D87
S11317E08068382E02C0883641F4F70193FD859154
S11317F093FF81917F018111B3CF982F9F7D9554E1
S1131800933028F40C5F1F4F9FE399830DC08336F8
S113181031F0833771F0833509F059C021C0F801E4
S1131820808189830E5F1F4F88248394912C5301F8
S113183013C02801F2E04F0E511CF801A080B180C2
S113184036FE03C0692D70E002C06FEF7FEFC50163
S11318500E946E0D4C018201F32DFF773F2E16C0BE
S1131860280122E0420E511CF801A080B18036FE0E
S113187003C0692D70E002C06FEF7FEFC5010E94C5
S1131880630D4C01F32DF0683F2E820133FC1BC025
S1131890822D90E088169906B0F4B60180E290E0BB
S11318A00E94790D2A94F4CFF50137FC859137FE17
S11318B081915F01B60190E00E94790D21102A9474
S11318C021E0821A91088114910471F7E8C08436EA
S11318D011F0893641F5F80137FE07C06081718146
S11318E0828193810C5F1F4F08C060817181072E34
S11318F0000C880B990B0E5F1F4FF32DFF763F2EC4
S113190097FF09C090958095709561957F4F8F4F93
S11319109F4FF0683F2E2AE030E0A3010E94B50DEE
S1131920882E861845C0853731F4232D2F7EB22E9C
S11319302AE030E025C0932D997FB92E8F36C1F06F
S113194018F4883579F0B5C0803719F0883721F05C
S1131950B0C0E92FE061BE2EB4FE0DC0FB2DF460D3
S1131960BF2E09C034FE0AC0292F2660B22E06C03D
S113197028E030E005C020E130E002C020E132E0A0
S1131980F801B7FE07C060817181828193810C5F89
S11319901F4F06C06081718180E090E00E5F1F4F91
S11319A0A3010E94B50D882E8618FB2DFF773F2ECC
S11319B036FE0DC0232D2E7FA22E891458F434FE3A
S11319C00BC032FC09C0832D8E7EA82E05C0B82C16
S11319D0A32C03C0B82C01C0B92CA4FE0FC0FE0177
S11319E0E80DF11D8081803321F49A2D997EA92E72
S11319F009C0A2FE06C0B394B39404C08A2D8678AD
S1131A0009F0B394A3FC11C0A0FE06C0B21488F47C
S1131A10280C922C9B180EC0B21460F4B60180E21C
S1131A2090E00E94790DB394F7CFB21418F42B18F8
S1131A3002C0982C212CA4FE10C0B60180E390E0D3
S1131A400E94790DA2FE17C0A1FC03C088E790E0B4
S1131A5002C088E590E0B6010CC08A2D867859F062
S1131A60A1FE02C08BE201C080E2A7FC8DE2B601B8
S1131A7090E00E94790D891438F4B60180E390E077
S1131A800E94790D9A94F7CF8A94F301E80DF11D21
S1131A908081B60190E00E94790D8110F5CF22205B
S1131AA009F442CEB60180E290E00E94790D2A94B6
S1131AB0F6CFF6018681978102C08FEF9FEF2B96B8
S1131AC0E2E10C942F0EFC0105906150704001106E
S1131AD0D8F7809590958E0F9F1F0895FC01615053
S1131AE0704001900110D8F7809590958E0F9F1F3C
S1131AF008950F931F93CF93DF93FB01238121FD5F
S1131B0003C08FEF9FEF2CC022FF16C04681578180
S1131B10248135814217530744F4A081B1819D018A
S1131B202F5F3F4F318320838C93268137812F5F32
S1131B303F4F3783268314C08B01EC01FB010084E3
S1131B40F185E02D0995892BE1F6D80116968D9142
S1131B509C911797019617969C938E931697CE0196
S1131B60DF91CF911F910F910895FA01AA27283090
S1131B7051F1203181F1E8946F936E7F6E5F7F4F56
S1131B808F4F9F4FAF4FB1E03ED0B4E03CD0670FD2
S1131B90781F891F9A1FA11D680F791F8A1F911D25
S1131BA0A11D6A0F711D811D911DA11D20D009F475
S1131BB068943F912AE0269F11243019305D3193B7
S1131BC0DEF6CF010895462F4770405D4193B3E0A0
S1131BD00FD0C9F7F6CF462F4F70405D4A3318F047
S1131BE0495D31FD4052419302D0A9F7EACFB4E0F8
S1131BF0A6959795879577956795BA95C9F70097B0
S1131C006105710508959B01AC010A2E0694579550
S1131C10479537952795BA95C9F7620F731F841FA7
S1131C20951FA01D08952F923F924F925F926F923D
S1131C307F928F929F92AF92BF92CF92DF92EF9258
S1131C40FF920F931F93CF93DF93CDB7DEB7CA1BD9
S1131C50DB0B0FB6F894DEBF0FBECDBF09942A8804
S1131C60398848885F846E847D848C849B84AA84AC
S1131C70B984C884DF80EE80FD800C811B81AA8139
S1131C80B981CE0FD11D0FB6F894DEBF0FBECDBF04
S10B1C90ED010895F894FFCF63
S1131C984D00410032003200320002000000020010
S1131CA800000200000000000000632F6D696E0050
S1131CB86C757800472E20742E202000592E20742D
S1131CC82E2000522E20742E20202020004D6F64D8
S10F1CD86F20202020002575003C3D00FA
S9030000FC
