:100000000C9424010C944A010C946F010C9441014E
:100010000C9441010C948B030C9441010C9441010C
:100020000C9441010C9441010C9441010C94410148
:100030000C9441010C9441010C94E7080C9441018B
:100040000C9441010C9441010C9441010C94410128
:100050000C9441010C9441010C9441010C94410118
:100060000C9441010C944101000000000000005F6D
:1000700000000007000700147F147F14242A7F2A41
:10008000122313086462364955225000050300000C
:10009000001C2241000041221C0014083E081408E4
:1000A000083E0808005030000008080808080060F2
:1000B00060000020100804023E5149453E00427F86
:1000C000400042615149462141454B311814127F8D
:1000D0001027454545393C4A494930017109050316
:1000E0003649494936064949291E0036360000007E
:1000F0005636000008142241001414141414004150
:100100002214080201510906324979413E7E11113B
:10011000117E7F494949363E414141227F4141227A
:100120001C7F494949417F090909013E4149497AF2
:100130007F0808087F00417F41002040413F017F48
:10014000081422417F404040407F020C027F7F0420
:1001500008107F3E4141413E7F090909063E415159
:10016000215E7F09192946464949493101017F012C
:10017000013F4040403F1F2040201F3F4038403F4C
:100180006314081463070870080761514945430068
:100190007F41410002040810200041417F00040219
:1001A0000102044040404040000102040020545439
:1001B00054787F48444438384444442038444448C0
:1001C0007F3854545418087E0901020C5252523E92
:1001D0007F0804047800447D40002040443D007FB7
:1001E0001028440000417F40007C041804787C08FB
:1001F00004047838444444387C1414140808141453
:10020000187C7C080404084854545420043F44409B
:10021000203C4040207C1C2040201C3C4030403C86
:1002200044281028440C5050503C4464544C440022
:100230000836410000007F00000041360800100829
:10024000081008000000000011241FBECFEFD8E006
:10025000DEBFCDBF11E0A0E0B1E0E2EFFCE102C003
:1002600005900D92AE34B107D9F723E0AEE4B1E0CA
:1002700001C01D92A138B207E1F70E94B7020C94A9
:10028000770E0C9400009091C00095FFFCCF8093F6
:10029000C60008951F920F920FB60F9211248F93EC
:1002A0009F93AF93BF9380915C0190915D01A0916A
:1002B0005E01B0915F010196A11DB11D80935C01AB
:1002C00090935D01A0935E01B0935F01BF91AF91E8
:1002D0009F918F910F900FBE0F901F9018951F92B6
:1002E0000F920FB60F9211240F900FBE0F901F9018
:1002F00018950E94DD0960E084E10E94B60A61E081
:100300008BE191E00E94A50A64E181E40E94B60AB3
:1003100061E081E291E00E94A50A6AE080E00E942B
:10032000B60A61E085E291E00E94A50A64E180E0FE
:100330000E94B60A61E08DE291E00E94A50A6EE19A
:1003400080E00E94B60A61E084E391E00E94A50A81
:1003500068E280E00E94B60A61E08EE391E00E94CC
:10036000A50A089520916E01211104C01092700118
:1003700010926F01213031F481E090E09093700190
:1003800080936F018091710190917201813091058C
:10039000C9F11CF4009749F098C08230910509F426
:1003A0005EC0039709F488C090C0211121C0880F56
:1003B000991F880F991FFC01E55FFE4F83818F9382
:1003C00082818F9381818F9380818F9387E491E0E5
:1003D0009F938F9388E091E09F938F930E948D0B62
:1003E0008DB79EB708960FB6F8949EBF0FBE8DBF0F
:1003F0006AE086E20E94B60A61E08AE491E00E9427
:10040000A50A63C0211121C0880F991F880F991F69
:10041000FC01E55FFE4F83818F9382818F93818101
:100420008F9380818F9387E491E09F938F9386E0F1
:1004300091E09F938F930E948D0B8DB79EB7089686
:100440000FB6F8949EBF0FBE8DBF64E186E20E9496
:10045000B60A61E08AE491E00E94A50A36C0211143
:1004600021C0880F991F880F991FFC01E55FFE4F7F
:1004700083818F9382818F9381818F9380818F93EA
:1004800087E491E09F938F9384E091E09F938F9313
:100490000E948D0B8DB79EB708960FB6F8949EBF3D
:1004A0000FBE8DBF6EE186E20E94B60A61E08AE46B
:1004B00091E00E94A50A09C068E286E20E94B60A9D
:1004C00061E08AE491E00E94A50A6AE08EE10E9460
:1004D000B60A61E088E091E00E94A50A64E18EE13D
:1004E0000E94B60A61E086E091E00E94A50A6EE1F2
:1004F0008EE10E94B60A61E084E091E00E94A50AC4
:1005000068E28EE10E94B60A80916F0190917001BD
:10051000880F991F61E080509F4F0E94A50A80912B
:1005200067018F93809166018F93809165018F930E
:10053000809164018F9387E491E09F938F938DE77F
:1005400093E09F938F930E948D0B60E080E00E9468
:10055000B60A61E08DE793E00E94A50A8DB79EB7C9
:1005600008960FB6F8949EBF0FBE8DBF089584B154
:10057000CFEFC4B98AB181688AB98AB18A788AB959
:100580008BB185678BB987B18C7F87B98AB18D7F35
:100590008AB98BB182608BB98AB188608AB90E94AE
:1005A00085090E9479010E94B2010E94BB0A8AE07B
:1005B0008093690083E08DBB84E0809368008BBBEF
:1005C00080E780936D0082E084BD85BD97EC97BD88
:1005D00080936E0083E28093B00085E08093B10049
:1005E00080E480937C0087EE80937A0010927B00F9
:1005F00010927E001092C500C093C40088E98093D9
:10060000C1008EE08093C2007894FFCF8F929F92BA
:10061000AF92BF92CF92DF92EF92FF920F931F9310
:10062000CF93DF93609164017091650180916601C1
:10063000909167012CE330E040E050E00E94E00A36
:10064000DA01C9010196A11DB11DCBE0D1E088837B
:100650009983AA83BB83C12CD12C7601C394CC820D
:10066000DD82EE82FF820F2EF9E0CF2ED12CE12C1D
:10067000F12CF02D46015701821A930AA40AB50AFB
:1006800088869986AA86BB86BF93AF939F938F93E4
:1006900007E411E01F930F9388E091E09F938F93FD
:1006A0000E948D0B8F818F938E818F938D818F937D
:1006B0008C818F931F930F9386E091E09F938F938C
:1006C0000E948D0B8B858F938A858F9389858F935D
:1006D00088858F931F930F9384E091E09F938F936E
:1006E0000E948D0B0E94B2010E94BB0A8DB79EB77B
:1006F00048960FB6F8949EBF0FBE8DBFDF91CF9185
:100700001F910F91FF90EF90DF90CF90BF90AF902F
:100710009F908F9008951F920F920FB60F92112401
:100720002F933F934F935F936F937F938F939F93F9
:10073000AF93BF93EF93FF934C9945C00E9479010B
:1007400080917101909172018330910549F420915B
:100750006E012F5F20936E01223014F010926E0113
:1007600020916E01211127C0FC01EE0FFF1FEE0F3B
:10077000FF1FE55FFE4F40815181628173814F5FB2
:100780005F4F6F4F7F4F40835183628373834A3043
:1007900051056105710578F0880F991F880F991F21
:1007A000FC01E55FFE4F89E090E0A0E0B0E08083CF
:1007B0009183A283B383213011F40E9406030E9427
:1007C000B2010E94BB0A4D9945C00E9479018091F7
:1007D0007101909172018330910551F420916E0165
:1007E000215020936E0122231CF421E020936E01FE
:1007F00020916E01211126C0FC01EE0FFF1FEE0FAC
:10080000FF1FE55FFE4F408151816281738141503E
:100810005109610971094083518362837383452BB8
:10082000462B472B79F4880F991F880F991FFC01DD
:10083000E55FFE4F81E090E0A0E0B0E0808391832F
:10084000A283B383213011F40E9406030E94B201F7
:100850000E94BB0A4E9915C00E94790180917101D6
:1008600090917201019690937201809371010497A7
:1008700024F010927201109271010E94B2010E9444
:10088000BB0A499927C080910A018F5F80930A01B2
:10089000833010F010920A0180910A01813031F406
:1008A00089E50E9443018BB181608BB980910A0177
:1008B000811106C088E50E9443018BB18E7F8BB900
:1008C00080910A01823031F48AE50E9443018BB1A4
:1008D0008E7F8BB9FF91EF91BF91AF919F918F91D7
:1008E0007F916F915F914F913F912F910F900FBE2C
:1008F0000F901F9018958091600190916101A091D7
:100900006201B09163010097A105B10541F4109215
:1009100064011092650110926601109267018130A6
:100920009105A105B10561F44CE350E060E070E091
:100930004093640150936501609366017093670171
:1009400083309105A105B10561F448E750E060E00E
:1009500070E0409364015093650160936601709369
:100960006701AC01BD014450510961097109423070
:1009700051056105710560F444EB50E060E070E002
:100980004093640150936501609366017093670121
:1009900086309105A105B10561F440EF50E060E0BB
:1009A00070E0409364015093650160936601709319
:1009B0006701AC01BD01475051096109710942301D
:1009C00051056105710560F44CE251E060E070E0B2
:1009D00040936401509365016093660170936701D1
:1009E00089309105A105B10561F448E651E060E068
:1009F00070E04093640150936501609366017093C9
:100A00006701AC01BD014A505109610971094230C9
:100A100051056105710560F444EA51E060E070E061
:100A20004093640150936501609366017093670180
:100A30000D97A105B10561F480EE91E0A0E0B0E072
:100A40008093640190936501A0936601B093670160
:100A50000895CF93DF93FC0120812223A9F1EC01BB
:100A6000209178003091790040E050E068E17CE925
:100A70008FE090E00E94020BDA01C901885E93408A
:100A8000A109B109BF93AF939F938F9387E491E03E
:100A90009F938F938DE693E09F938F930E948D0B8E
:100AA0006AE081E40E94B60A61E08DE693E00E946C
:100AB000A50A0E94BB0A18828DB79EB708960FB68A
:100AC000F8949EBF0FBE8DBFDF91CF910895CF9355
:100AD000DF93EC018881882381F1209178003091A7
:100AE000790040E050E068E17CE98FE090E00E940E
:100AF000020BDA01C901885E9340A109B1098C3269
:100B00009140A105B105B4F4369B0CC080916401FD
:100B100090916501A0916601B0916701892B8A2BA4
:100B20008B2B21F089EF8093B40006C08BE4809377
:100B3000B40002C01092B4001882DF91CF910895E2
:100B40004F925F926F927F928F929F92AF92BF92DD
:100B5000CF92DF92EF92FF920F93CF93DF9380912A
:100B6000680190916901A0916A01B0916B01409177
:100B70005601509157016091580170915901841BA1
:100B8000950BA60BB70B80319742A105B10598F1E3
:100B9000C3E7D3E087E6888389E78A8382E78C838B
:100BA000809108018983809106018B8380910401E3
:100BB0008D8387E60E94430189810E9443018A81D7
:100BC0000E9443018B810E9443018C810E9443015A
:100BD0008D810E9443018091680190916901A091EB
:100BE0006A01B0916B018093560190935701A093D5
:100BF0005801B0935901409068015090690160908C
:100C00006A0170906B018091520190915301A09103
:100C10005401B0915501A3019201281B390B4A0BD5
:100C20005B0BDA01C9018035934CA105B10508F4CD
:100C300043C060915C0170915D0180915E01909173
:100C40005F012DEC3CEC4CEC5CEC0E942C0B00E2C8
:100C50000E94590B822E932EA42EB52EB694A794E3
:100C600097948794B694A794979487948092600100
:100C700090926101A0926201B092630110925C01B6
:100C800010925D0110925E0110925F01409252013C
:100C90005092530160925401709255010E947B045E
:100CA00080916E01813011F40E9406030E94790147
:100CB0000E94B2010E94BB0A8BE591E00E942905C7
:100CC0008AE591E00E94670580910A01823009F06F
:100CD00062C280916C0190916D01892B59F48FE073
:100CE00085B980916C0190916D01019690936D0191
:100CF00080936C01C0906801D0906901E0906A0116
:100D0000F0906B0180914E0190914F01A0915001A4
:100D1000B0915101C81AD90AEA0AFB0A20910B01C5
:100D200030910C0140910D0150910E01A4ECB9E0FD
:100D30000E94210BC616D706E806F90688F08091B6
:100D40006C0190916D01019759F487E085B980910C
:100D50006C0190916D01019690936D0180936C01EF
:100D6000C0906801D0906901E0906A01F0906B0139
:100D700080914E0190914F01A0915001B09151018D
:100D8000C81AD90AEA0AFB0A20910B0130910C011A
:100D900040910D0150910E01A8E8B3E10E94210B92
:100DA000C616D706E806F90688F080916C01909186
:100DB0006D01029759F483E085B980916C0190919F
:100DC0006D01019690936D0180936C01C090680154
:100DD000D0906901E0906A01F0906B0180914E0122
:100DE00090914F01A0915001B0915101C81AD90AB8
:100DF000EA0AFB0A20910B0130910C0140910D0190
:100E000050910E01ACE4BDE10E94210BC616D7063D
:100E1000E806F90688F080916C0190916D010397C6
:100E200059F481E085B980916C0190916D01019632
:100E300090936D0180936C01C0906801D09069011E
:100E4000E0906A01F0906B0180914E0190914F010A
:100E5000A0915001B0915101C81AD90AEA0AFB0ABF
:100E600020910B0130910C0140910D0150910E0128
:100E7000A0E1B7E20E94210BC616D706E806F906E4
:100E800098F080916C0190916D01049769F415B808
:100E90008BB180688BB980916C0190916D01019646
:100EA00090936D0180936C01C0906801D0906901AE
:100EB000E0906A01F0906B0180914E0190914F019A
:100EC000A0915001B0915101C81AD90AEA0AFB0A4F
:100ED000EBE0F1E0408151816281738184819581F1
:100EE000A681B7819A01AB01280F391F4A1F5B1FEA
:100EF000A0E1B7E20E94210BC616D706E806F90664
:100F0000A0F080916C0190916D01059771F48BB107
:100F10008F778BB980EF85B980916C0190916D01CD
:100F2000019690936D0180936C01C0906801D09000
:100F30006901E0906A01F0906B0180914E019091FF
:100F40004F01A0915001B0915101C81AD90AEA0A83
:100F5000FB0AEBE0F1E04081518162817381848181
:100F60009581A681B7819A01AB01280F391F4A1FCD
:100F70005B1FA0E1B7E20E94210B4B015C012085C1
:100F8000318542855385A4ECB9E00E94210BDC0138
:100F9000CB01880D991DAA1DBB1DC816D906EA06EE
:100FA000FB0688F080916C0190916D01069759F4D1
:100FB00080E785B980916C0190916D0101969093C5
:100FC0006D0180936C01C0906801D0906901E09040
:100FD0006A01F0906B0180914E0190914F01A091B8
:100FE0005001B0915101C81AD90AEA0AFB0AEBE094
:100FF000F1E0408151816281738184819581A68174
:10100000B7819A01AB01280F391F4A1F5B1FA0E16E
:10101000B7E20E94210B4B015C012085318542859E
:101020005385A8E8B3E10E94210BDC01CB01880DB8
:10103000991DAA1DBB1DC816D906EA06FB0688F035
:1010400080916C0190916D01079759F480E385B907
:1010500080916C0190916D01019690936D01809348
:101060006C01C0906801D0906901E0906A01F09035
:101070006B0180914E0190914F01A0915001B09170
:101080005101C81AD90AEA0AFB0AEBE0F1E04081F3
:1010900051816281738184819581A681B7819A0192
:1010A000AB01280F391F4A1F5B1FA0E1B7E20E9466
:1010B000210B4B015C012085318542855385ACE4D1
:1010C000BDE10E94210BDC01CB01880D991DAA1DF9
:1010D000BB1DC816D906EA06FB0688F080916C0194
:1010E00090916D01089759F480E185B980916C0168
:1010F00090916D01019690936D0180936C01C09069
:101100006801D0906901E0906A01F0906B018091D4
:101110004E0190914F01A0915001B0915101C81A18
:10112000D90AEA0AFB0AEBE0F1E0408151816281D1
:10113000738184819581A681B781480F591F6A1FE9
:101140007B1F80859185A285B3859A01AB01280F0D
:10115000391F4A1F5B1FA0E1B7E20E94210BC61690
:10116000D706E806F906B8F089E60E9443018091A7
:10117000680190916901A0916A01B0916B0180931F
:101180004E0190934F01A0935001B09351011092E2
:101190006D0110926C0180910A01813011F48FE091
:1011A00085B980910A01811102C080EF85B9DF9174
:1011B000CF910F91FF90EF90DF90CF90BF90AF90C5
:1011C0009F908F907F906F905F904F9008951F92A7
:1011D0000F920FB60F921124CF92DF92EF92FF92EF
:1011E0002F933F934F935F936F937F938F939F932F
:1011F000AF93BF93EF93FF93609168017091690182
:1012000080916A0190916B010E94A005C0906801D5
:10121000D0906901E0906A01F0906B018FEFC81ADD
:10122000D80AE80AF80AC0926801D0926901E092EF
:101230006A01F0926B01C701B60128E833E140E092
:1012400050E00E94E00A672B682B692B19F481E0BB
:1012500080935B01C701B60124EF31E040E050E02C
:101260000E94E00A672B682B692B19F481E08093B8
:101270005A01FF91EF91BF91AF919F918F917F9113
:101280006F915F914F913F912F91FF90EF90DF9081
:10129000CF900F900FBE0F901F90189598B19D7F23
:1012A00098B9662329F098B1986098B990E01FC06A
:1012B00098B1977F98B9FACF47E050E0491B5109A0
:1012C000282F30E002C0359527954A95E2F720FF98
:1012D00004C028B1206128B903C028B12F7E28B9E5
:1012E00028B1206228B928B12F7D28B99F5F983096
:1012F00018F388B1826088B9089560E00E944E09B1
:10130000089561E00E944E090895CF93DF9387B15D
:10131000826087B987B1846087B987B1886087B9EF
:1013200087B1806187B987B1806287B988B18460ED
:1013300088B988B1826088B983EC99E00197F1F7A8
:1013400000C0000088B18B7F88B98BE594E40197D9
:10135000F1F700C0000088B1846088B988B18D7F42
:1013600088B981E20E947D0983E10E947D0986E0BF
:101370000E947D0982EC0E947D0980E20E947D0925
:1013800089E00E947D0980E80E947D0980E40E9436
:101390007D09C0E0D0E004C080E00E948109219670
:1013A000C83F91E0D907C0F388E00E947D098CE036
:1013B0000E947D09DF91CF91089580E80E947D0908
:1013C00080E40E947D0910926B0310926C0380E010
:1013D00090E005C0FC01ED58FE4F10820196883F59
:1013E00021E09207B8F30895262F26952695269595
:1013F00090E034E5239F800D911D1124442379F062
:10140000677021E030E002C0220F331F6A95E2F7D7
:10141000FC01ED58FE4F8081282B208308956770D2
:1014200021E030E002C0220F331F6A95E2F7FC0191
:10143000ED58FE4F20958081282320830895EF9258
:10144000FF920F931F93CF93DF93E82EF62E00E0C9
:1014500045C02E2D30E020523109802F6F2D0E9483
:10146000D40AF901EE0FFF1FEE0FFF1FE20FF31F6B
:10147000E80FF11DE859FF4FE491812F0E94D40A33
:10148000F0E002C0F595E7958A95E2F7E0FF0AC023
:1014900060916C0380916B03610F41E0800F0E94AB
:1014A000F40909C060916C0380916B03610F40E007
:1014B000800F0E94F4091F5F01C010E0212F30E06F
:1014C000CE01880F991F880F991F880F991F8C1BB9
:1014D0009D0B281739070CF4BCCF0F5F202F30E08D
:1014E000CF2DD0E0CE01880F991F880F991F8C0F48
:1014F0009D1F281739070CF3EBE6F3E08F2D880FBB
:10150000880F8F0D9081890F8F5F8083843570F0F5
:1015100010926B03ECE6F3E08F2D880F880F880F95
:10152000982F9F198081890F8F5F808380916C0332
:10153000803320F010926B0310926C03DF91CF91F7
:101540001F910F91FF90EF9008951F93CF93DF931A
:10155000EC01162F04C02196612F0E941F0A88817A
:101560008111F9CFDF91CF911F91089580936B0383
:1015700060936C030895CF93DF9380E80E947D0908
:1015800080E40E947D09C0E0D0E007C0FE01ED5874
:10159000FE4F80810E9481092196C83F81E0D807D3
:1015A000A8F3DF91CF910895991B79E004C0991FAA
:1015B000961708F0961B881F7A95C9F780950895AD
:1015C000A1E21A2EAA1BBB1BFD010DC0AA1FBB1F47
:1015D000EE1FFF1FA217B307E407F50720F0A21BB9
:1015E000B30BE40BF50B661F771F881F991F1A9426
:1015F00069F760957095809590959B01AC01BD0150
:10160000CF010895052E97FB1EF400940E94190B3C
:1016100057FD07D00E94E00A07FC03D04EF40C945B
:10162000190B50954095309521953F4F4F4F5F4F87
:10163000089590958095709561957F4F8F4F9F4F3E
:1016400008950E94750BA59F900DB49F900DA49FC7
:10165000800D911D11240895E894DF93CF93FC0130
:10166000DB010E94750B7F936F93E9019A01AC0136
:10167000BF93AF933F932F93DF010E94750B26F426
:101680006C1B7D0B820B930B9E01EB01FC010E94F6
:10169000840BAF91BF912F913F910E94840BBE01AB
:1016A000CF01F9012F913F91CF91DF91089597FBE1
:1016B00010F8169400080F93083098F00850232F64
:1016C000342F452F562F672F782F892F902DF4CF49
:1016D000059497958795779567955795479537958D
:1016E00027950A95AAF70F910895A29FB001B39F7D
:1016F000C001A39F700D811D1124911DB29F700D1B
:10170000811D1124911D08950E94750B460F571FCE
:10171000C81FD91F08F431960895AEE0B0E0E3E9A0
:10172000FBE00C944E0E0D891E8986E08C831A8393
:1017300009838FEF9FE79E838D83AE01475E5F4FE6
:101740006F89788DCE0101960E94AF0BEF81F885ED
:10175000E00FF11F10822E96E4E00C946A0EABE0CD
:10176000B0E0E5EBFBE00C94400E6C017B018A01DC
:10177000FC0117821682838181FFCCC1CE010196C4
:101780003C01F6019381F70193FD859193FF8191CF
:101790007F01882309F4BAC1853239F493FD85911C
:1017A00093FF81917F01853229F4B60190E00E9478
:1017B000A60DE7CF912C212C312CFFE1F315D8F0A9
:1017C0008B3279F038F4803279F08332A1F4232D12
:1017D00020611DC08D3261F0803369F4232D2160BA
:1017E00016C0832D8260382EE32DE4603E2E2AC081
:1017F000F32DF8601DC037FC2DC020ED280F2A30D6
:1018000040F08E32B9F436FC81C1232D2064322E93
:1018100019C036FE06C08AE0989E200D1124922E33
:1018200011C0EAE02E9E200D1124222EF32DF0622D
:101830003F2E08C08C3621F4832D8068382E02C0DC
:10184000883641F4F70193FD859193FF81917F01E3
:101850008111B3CF982F9F7D9554933028F40C5F5E
:101860001F4F9FE399830DC0833631F0833771F0AA
:10187000833509F059C021C0F801808189830E5F4A
:101880001F4F88248394912C530113C02801F2E048
:101890004F0E511CF801A080B18036FE03C0692DA7
:1018A00070E002C06FEF7FEFC5010E949B0D4C01FD
:1018B0008201F32DFF773F2E16C0280122E0420E51
:1018C000511CF801A080B18036FE03C0692D70E084
:1018D00002C06FEF7FEFC5010E94900D4C01F32D08
:1018E000F0683F2E820133FC1BC0822D90E08816E9
:1018F0009906B0F4B60180E290E00E94A60D2A9409
:10190000F4CFF50137FC859137FE81915F01B60177
:1019100090E00E94A60D21102A9421E0821A9108DD
:101920008114910471F7E8C0843611F0893641F5CD
:10193000F80137FE07C060817181828193810C5F5D
:101940001F4F08C060817181072E000C880B990B16
:101950000E5F1F4FF32DFF763F2E97FF09C0909526
:101960008095709561957F4F8F4F9F4FF0683F2E08
:101970002AE030E0A3010E94E20D882E861845C0BF
:10198000853731F4232D2F7EB22E2AE030E025C09A
:10199000932D997FB92E8F36C1F018F4883579F0E0
:1019A000B5C0803719F0883721F0B0C0E92FE06169
:1019B000BE2EB4FE0DC0FB2DF460BF2E09C034FE58
:1019C0000AC0292F2660B22E06C028E030E005C0EC
:1019D00020E130E002C020E132E0F801B7FE07C0AC
:1019E00060817181828193810C5F1F4F06C060818D
:1019F000718180E090E00E5F1F4FA3010E94E20D15
:101A0000882E8618FB2DFF773F2E36FE0DC0232D26
:101A10002E7FA22E891458F434FE0BC032FC09C06C
:101A2000832D8E7EA82E05C0B82CA32C03C0B82C05
:101A300001C0B92CA4FE0FC0FE01E80DF11D80818C
:101A4000803321F49A2D997EA92E09C0A2FE06C0EA
:101A5000B394B39404C08A2D867809F0B394A3FCA0
:101A600011C0A0FE06C0B21488F4280C922C9B185A
:101A70000EC0B21460F4B60180E290E00E94A60DA0
:101A8000B394F7CFB21418F42B1802C0982C212C61
:101A9000A4FE10C0B60180E390E00E94A60DA2FE55
:101AA00017C0A1FC03C088E790E002C088E590E081
:101AB000B6010CC08A2D867859F0A1FE02C08BE2D7
:101AC00001C080E2A7FC8DE2B60190E00E94A60D65
:101AD000891438F4B60180E390E00E94A60D9A9430
:101AE000F7CF8A94F301E80DF11D8081B60190E0F3
:101AF0000E94A60D8110F5CF222009F442CEB60136
:101B000080E290E00E94A60D2A94F6CFF60186812D
:101B1000978102C08FEF9FEF2B96E2E10C945C0E51
:101B2000FC010590615070400110D8F780959095A8
:101B30008E0F9F1F0895FC016150704001900110AD
:101B4000D8F7809590958E0F9F1F08950F931F9340
:101B5000CF93DF93FB01238121FD03C08FEF9FEF24
:101B60002CC022FF16C0468157812481358142173F
:101B7000530744F4A081B1819D012F5F3F4F318312
:101B800020838C93268137812F5F3F4F37832683B5
:101B900014C08B01EC01FB010084F185E02D099557
:101BA000892BE1F6D80116968D919C911797019695
:101BB00017969C938E931697CE01DF91CF911F912C
:101BC0000F910895FA01AA27283051F1203181F1AF
:101BD000E8946F936E7F6E5F7F4F8F4F9F4FAF4F35
:101BE000B1E03ED0B4E03CD0670F781F891F9A1F48
:101BF000A11D680F791F8A1F911DA11D6A0F711DFC
:101C0000811D911DA11D20D009F468943F912AE007
:101C1000269F11243019305D3193DEF6CF010895EF
:101C2000462F4770405D4193B3E00FD0C9F7F6CF20
:101C3000462F4F70405D4A3318F0495D31FD4052E8
:101C4000419302D0A9F7EACFB4E0A695979587957E
:101C500077956795BA95C9F700976105710508955D
:101C60009B01AC010A2E0694579547953795279509
:101C7000BA95C9F7620F731F841F951FA01D0895A1
:101C80002F923F924F925F926F927F928F929F928C
:101C9000AF92BF92CF92DF92EF92FF920F931F937A
:101CA000CF93DF93CDB7DEB7CA1BDB0B0FB6F8942B
:101CB000DEBF0FBECDBF09942A88398848885F846B
:101CC0006E847D848C849B84AA84B984C884DF80DC
:101CD000EE80FD800C811B81AA81B981CE0FD11DC0
:101CE0000FB6F894DEBF0FBECDBFED010895F89496
:021CF000FFCF24
:101CF2004D004100320032003200020200000002B8
:101D02000000000200000000000000632F6D696EF9
:101D1200006C757800472E20742E202000592E204A
:101D2200742E2000522E20742E20202020004D6F71
:0E1D3200646F20202020002575003C3D00003D
:00000001FF
