:100000000C9434000C9451000C94F4000C945100A6
:100010000C9451000C9451000C9451000C9451001C
:100020000C9451000C9451000C9451000C9451000C
:100030000C9451000C9451000C949F030C945100AB
:100040000C9451000C9451000C9453000C945100EA
:100050000C9451000C9451000C9451000C945100DC
:100060000C9451000C94510011241FBECFEFD8E026
:10007000DEBFCDBF11E0A0E0B1E0E4EFF7E002C0E9
:1000800005900D92AE30B107D9F721E0AEE0B1E0B6
:1000900001C01D92A632B207E1F70E9437010C940D
:1000A000F8030C9400001F920F920FB60F921124C8
:1000B0004F935F936F937F938F939F93AF93BF9370
:1000C000EF93FF938091C60080931D01823761F00A
:1000D000893731F0873661F481E08093120140C0A6
:1000E00082E0809312013CC083E08093120138C00B
:1000F00090911201913081F4482F50E04053510902
:10010000052E000C660B770B40931E0150931F01C8
:100110006093200170932101923081F4482F50E0C8
:1001200040535109052E000C660B770B40932201BA
:10013000509323016093240170932501933071F44F
:1001400090E0C097092E000CAA0BBB0B80931901FD
:1001500090931A01A0931B01B0931C0110921201FD
:100160004091220150912301609124017091250159
:100170008091190190911A01A0911B01B0911C016D
:10018000841B950BA60BB70BE1E0F1E08083918314
:10019000A283B383448355836683778380911E0152
:1001A00090911F01A0912001B0912101840F951F12
:1001B000A61FB71F80879187A287B387FF91EF9112
:1001C000BF91AF919F918F917F916F915F914F916F
:1001D0000F900FBE0F901F9018959091C00095FF43
:1001E000FCCF8093C60008951F920F920FB60F9216
:1001F00011242F933F934F935F936F937F938F932C
:100200009F93AF93BF93EF93FF93809100018F5F14
:1002100080930001833010F0109200018091000162
:10022000813021F489E590E00E94ED008091000189
:10023000811104C088E590E00E94ED0080910001EA
:10024000823021F48AE590E00E94ED00FF91EF9169
:10025000BF91AF919F918F917F916F915F914F91DE
:100260003F912F910F900FBE0F901F90189584B162
:100270009FEF94B98AB1806B8AB98AB1877F8AB9B6
:100280008BB188608BB98AE08093690083E08DBB75
:1002900082E084BD85BD27EC27BD80936E0010925F
:1002A000C5009093C40088E98093C10086E08093E4
:1002B000C2007894FFCF8F929F92AF92BF92CF925D
:1002C000DF92EF92FF9280910001823009F016C216
:1002D0008BB18F7C8BB98091170190911801892B7C
:1002E00071F48BB18F778BB980EF85B9809117014D
:1002F0009091180101969093180180931701C09076
:100300001301D0901401E0901501F0901601809136
:100310000E0190910F01A0911001B0911101C81A26
:10032000D90AEA0AFB0A2091090130910A01409199
:100330000B0150910C01A4ECB9E00E94DE03C6163B
:10034000D706E806F90688F0809117019091180108
:10035000019759F480E785B98091170190911801B0
:1003600001969093180180931701C0901301D090CB
:100370001401E0901501F090160180910E0190910A
:100380000F01A0911001B0911101C81AD90AEA0A0F
:10039000FB0A2091090130910A0140910B01509113
:1003A0000C01A8E8B3E10E94DE03C616D706E806F2
:1003B000F90688F08091170190911801029759F47D
:1003C00080E385B98091170190911801019690936F
:1003D000180180931701C0901301D0901401E09090
:1003E0001501F090160180910E0190910F01A091DE
:1003F0001001B0911101C81AD90AEA0AFB0A20912A
:10040000090130910A0140910B0150910C01ACE4BB
:10041000BDE10E94DE03C616D706E806F90688F09D
:100420008091170190911801039759F480E185B9E3
:100430008091170190911801019690931801809373
:100440001701C0901301D0901401E0901501F090B5
:10045000160180910E0190910F01A0911001B091B1
:100460001101C81AD90AEA0AFB0A20910901309140
:100470000A0140910B0150910C01A0E1B7E20E94EA
:10048000DE03C616D706E806F90688F08091170144
:1004900090911801049759F48FE085B98091170164
:1004A0009091180101969093180180931701C090C4
:1004B0001301D0901401E0901501F0901601809185
:1004C0000E0190910F01A0911001B0911101C81A75
:1004D000D90AEA0AFB0AE1E0F1E02085318542858C
:1004E0005385A0E1B7E20E94DE034B015C0120814D
:1004F000318142815381A4ECB9E00E94DE03DC012A
:10050000CB01880D991DAA1DBB1DC816D906EA0688
:10051000FB0688F08091170190911801059759F416
:1005200087E085B980911701909118010196909309
:10053000180180931701C0901301D0901401E0902E
:100540001501F090160180910E0190910F01A0917C
:100550001001B0911101C81AD90AEA0AFB0AE1E0B8
:10056000F1E02085318542855385A0E1B7E20E9404
:10057000DE034B015C012081318142815381A8E877
:10058000B3E10E94DE03DC01CB01880D991DAA1D99
:10059000BB1DC816D906EA06FB0688F08091170134
:1005A00090911801069759F483E085B9809117015D
:1005B0009091180101969093180180931701C090B3
:1005C0001301D0901401E0901501F0901601809174
:1005D0000E0190910F01A0911001B0911101C81A64
:1005E000D90AEA0AFB0AE1E0F1E02085318542857B
:1005F0005385A0E1B7E20E94DE034B015C0120813C
:10060000318142815381ACE4BDE10E94DE03DC0113
:10061000CB01880D991DAA1DBB1DC816D906EA0677
:10062000FB0688F08091170190911801079759F403
:1006300081E085B9809117019091180101969093FE
:10064000180180931701C0901301D0901401E0901D
:100650001501F090160180910E0190910F01A0916B
:100660001001B0911101C81AD90AEA0AFB0AE1E0A7
:10067000F1E0408551856285738580819181A281F9
:10068000B3819A01AB01280F391F4A1F5B1FA0E1FC
:10069000B7E20E94DE03C616D706E806F90698F010
:1006A0008091170190911801089769F415B88BB1E2
:1006B00080688BB9809117019091180101969093F1
:1006C00018018093170180911D018936B9F480E2E9
:1006D00080931D018091130190911401A091150147
:1006E000B091160180930E0190930F01A093100119
:1006F000B09311011092180110921701809100011E
:10070000813041F480EF85B98BB18F7C8BB98BB18F
:1007100080618BB980910001811108C08FE085B99B
:100720008BB18F7C8BB98BB180628BB9FF90EF90CE
:10073000DF90CF90BF90AF909F908F9008951F92C1
:100740000F920FB60F9211242F933F934F935F9305
:100750006F937F938F939F93AF93BF93EF93FF9389
:10076000609113017091140180911501909116010F
:100770000E945B018091130190911401A0911501D9
:10078000B09116010196A11DB11D809313019093A4
:100790001401A0931501B0931601FF91EF91BF9141
:1007A000AF919F918F917F916F915F914F913F9109
:1007B0002F910F900FBE0F901F9018950E94E90384
:1007C000A59F900DB49F900DA49F800D911D1124A5
:1007D0000895A29FB001B39FC001A39F700D811D1A
:1007E0001124911DB29F700D811D1124911D08953A
:0407F000F894FFCFAB
:0E07F4000201000000010000000400000000EF
:00000001FF
