:100000000C9434000C9451000C9451000C94510049
:100010000C9451000C9451000C9451000C9451001C
:100020000C9451000C9451000C9451000C9451000C
:100030000C9451000C9451000C944D030C945100FD
:100040000C9451000C9451000C9453000C945100EA
:100050000C9451000C9451000C9451000C945100DC
:100060000C9451000C94510011241FBECFEFD8E026
:10007000DEBFCDBF11E0A0E0B1E0E0E5F7E002C0F7
:1000800005900D92AC30B107D9F721E0ACE0B1E0BA
:1000900001C01D92A432B207E1F70E94ED000C945A
:1000A000A6030C9400001F920F920FB60F9211241A
:1000B0004F935F936F937F938F939F93AF93BF9370
:1000C000EF93FF938091C60080931B01823761F00C
:1000D000893731F0873661F481E08093100140C0A8
:1000E00082E0809310013CC083E08093100138C00F
:1000F00090911001913081F4482F50E04053510904
:10010000052E000C660B770B40931C0150931D01CC
:1001100060931E0170931F01923081F4482F50E0CC
:1001200040535109052E000C660B770B40932001BC
:10013000509321016093220170932301933071F455
:1001400090E0C097092E000CAA0BBB0B80931701FF
:1001500090931801A0931901B0931A011092100105
:100160004091200150912101609122017091230161
:100170008091170190911801A0911901B0911A0175
:10018000841B950BA60BB70BE0E0F1E08083918315
:10019000A283B383448355836683778380911C0154
:1001A00090911D01A0911E01B0911F01840F951F18
:1001B000A61FB71F80879187A287B387FF91EF9112
:1001C000BF91AF919F918F917F916F915F914F916F
:1001D0000F900FBE0F901F90189584B19FEF94B9A8
:1001E0008AB180688AB98AB1827E8AB98BB18D6101
:1001F0008BB98AE08093690083E08DBB84E08093B3
:1002000068008BBB80E180936D0082E084BD85BD7A
:1002100027EC27BD80936E001092C5009093C40018
:1002200088E98093C10086E08093C2007894FFCF74
:100230008F929F92AF92BF92CF92DF92EF92FF92F6
:1002400080911B018A3509F013C2809115019091AC
:100250001601892B71F48BB18F778BB980EF85B93B
:10026000809115019091160101969093160180934B
:100270001501C0901101D0901201E0901301F0908F
:10028000140180910C0190910D01A0910E01B0918B
:100290000F01C81AD90AEA0AFB0A20910801309115
:1002A000090140910A0150910B01A4ECB9E00E94B0
:1002B0008C03C616D706E806F90688F0809115016A
:1002C00090911601019759F480E785B98091150145
:1002D0009091160101969093160180931501C0909C
:1002E0001101D0901201E0901301F090140180915F
:1002F0000C0190910D01A0910E01B0910F01C81A4F
:10030000D90AEA0AFB0A20910801309109014091BB
:100310000A0150910B01A8E8B3E10E948C03C616B4
:10032000D706E806F90688F080911501909116012C
:10033000029759F480E385B98091150190911601D7
:1003400001969093160180931501C0901101D090F1
:100350001201E0901301F090140180910C01909132
:100360000D01A0910E01B0910F01C81AD90AEA0A35
:10037000FB0A209108013091090140910A01509136
:100380000B01ACE4BDE10E948C03C616D706E8065B
:10039000F90688F08091150190911601039759F4A0
:1003A00080E185B980911501909116010196909395
:1003B000160180931501C0901101D0901201E090B8
:1003C0001301F090140180910C0190910D01A09106
:1003D0000E01B0910F01C81AD90AEA0AFB0A20914E
:1003E00008013091090140910A0150910B01A0E1EF
:1003F000B7E20E948C03C616D706E806F90688F015
:100400008091150190911601049759F48FE085B9F8
:100410008091150190911601019690931601809399
:100420001501C0901101D0901201E0901301F090DD
:10043000140180910C0190910D01A0910E01B091D9
:100440000F01C81AD90AEA0AFB0AE0E0F1E02085A8
:10045000318542855385A0E1B7E20E948C034B01B0
:100460005C012081318142815381A4ECB9E00E947A
:100470008C03DC01CB01880D991DAA1DBB1DC8167C
:10048000D906EA06FB0688F08091150190911601C5
:10049000059759F487E085B980911501909116016F
:1004A00001969093160180931501C0901101D09090
:1004B0001201E0901301F090140180910C019091D1
:1004C0000D01A0910E01B0910F01C81AD90AEA0AD4
:1004D000FB0AE0E0F1E02085318542855385A0E10B
:1004E000B7E20E948C034B015C0120813181428183
:1004F0005381A8E8B3E10E948C03DC01CB01880D95
:10050000991DAA1DBB1DC816D906EA06FB0688F070
:100510008091150190911601069759F483E085B9F1
:100520008091150190911601019690931601809388
:100530001501C0901101D0901201E0901301F090CC
:10054000140180910C0190910D01A0910E01B091C8
:100550000F01C81AD90AEA0AFB0AE0E0F1E0208597
:10056000318542855385A0E1B7E20E948C034B019F
:100570005C012081318142815381ACE4BDE10E9464
:100580008C03DC01CB01880D991DAA1DBB1DC8166B
:10059000D906EA06FB0688F08091150190911601B4
:1005A000079759F481E085B9809115019091160162
:1005B00001969093160180931501C0901101D0907F
:1005C0001201E0901301F090140180910C019091C0
:1005D0000D01A0910E01B0910F01C81AD90AEA0AC3
:1005E000FB0AE0E0F1E040855185628573858081FA
:1005F0009181A281B3819A01AB01280F391F4A1F53
:100600005B1FA0E1B7E20E948C03C616D706E8067E
:10061000F90698F08091150190911601089769F4F8
:1006200015B88BB180688BB9809115019091160136
:100630000196909316018093150180911B018936D4
:10064000B9F480E280931B01809111019091120115
:10065000A0911301B091140180930C0190930D01AE
:10066000A0930E01B0930F01109216011092150184
:1006700080911B01883511F48FE085B980911B01B1
:10068000883511F480EF85B9FF90EF90DF90CF901F
:10069000BF90AF909F908F9008951F920F920FB6CA
:1006A0000F9211242F933F934F935F936F937F93F8
:1006B0008F939F93AF93BF93EF93FF93609111013B
:1006C0007091120180911301909114010E94180100
:1006D0008091110190911201A0911301B091140128
:1006E0000196A11DB11D8093110190931201A09359
:1006F0001301B0931401FF91EF91BF91AF919F91BE
:100700008F917F916F915F914F913F912F910F90BA
:100710000FBE0F901F9018950E949703A59F900DF4
:10072000B49F900DA49F800D911D11240895A29F48
:10073000B001B39FC001A39F700D811D1124911DB5
:10074000B29F700D811D1124911D0895F894FFCF63
:0C07500001000000010000000400000097
:00000001FF
